{
  "contractName": "DigitalSignature",
  "abi": [
    {
      "anonymous": false,
      "inputs": [
        {
          "indexed": true,
          "internalType": "uint256",
          "name": "contractId",
          "type": "uint256"
        }
      ],
      "name": "ContractCompleted",
      "type": "event"
    },
    {
      "anonymous": false,
      "inputs": [
        {
          "indexed": true,
          "internalType": "uint256",
          "name": "contractId",
          "type": "uint256"
        },
        {
          "indexed": true,
          "internalType": "address",
          "name": "creator",
          "type": "address"
        },
        {
          "indexed": false,
          "internalType": "string",
          "name": "title",
          "type": "string"
        },
        {
          "indexed": false,
          "internalType": "uint256",
          "name": "expiresAt",
          "type": "uint256"
        }
      ],
      "name": "ContractCreated",
      "type": "event"
    },
    {
      "anonymous": false,
      "inputs": [
        {
          "indexed": true,
          "internalType": "uint256",
          "name": "contractId",
          "type": "uint256"
        },
        {
          "indexed": true,
          "internalType": "address",
          "name": "signer",
          "type": "address"
        },
        {
          "indexed": false,
          "internalType": "uint256",
          "name": "signedAt",
          "type": "uint256"
        }
      ],
      "name": "ContractSigned",
      "type": "event"
    },
    {
      "anonymous": false,
      "inputs": [
        {
          "indexed": true,
          "internalType": "address",
          "name": "userAddress",
          "type": "address"
        },
        {
          "indexed": false,
          "internalType": "string",
          "name": "name",
          "type": "string"
        }
      ],
      "name": "UserRegistered",
      "type": "event"
    },
    {
      "inputs": [],
      "name": "MAX_SIGNERS",
      "outputs": [
        {
          "internalType": "uint256",
          "name": "",
          "type": "uint256"
        }
      ],
      "stateMutability": "view",
      "type": "function",
      "constant": true
    },
    {
      "inputs": [],
      "name": "MIN_SIGNERS",
      "outputs": [
        {
          "internalType": "uint256",
          "name": "",
          "type": "uint256"
        }
      ],
      "stateMutability": "view",
      "type": "function",
      "constant": true
    },
    {
      "inputs": [],
      "name": "contractCount",
      "outputs": [
        {
          "internalType": "uint256",
          "name": "",
          "type": "uint256"
        }
      ],
      "stateMutability": "view",
      "type": "function",
      "constant": true
    },
    {
      "inputs": [
        {
          "internalType": "bytes32",
          "name": "",
          "type": "bytes32"
        }
      ],
      "name": "usedHashes",
      "outputs": [
        {
          "internalType": "bool",
          "name": "",
          "type": "bool"
        }
      ],
      "stateMutability": "view",
      "type": "function",
      "constant": true
    },
    {
      "inputs": [
        {
          "internalType": "address",
          "name": "",
          "type": "address"
        }
      ],
      "name": "users",
      "outputs": [
        {
          "internalType": "string",
          "name": "name",
          "type": "string"
        },
        {
          "internalType": "bool",
          "name": "isRegistered",
          "type": "bool"
        }
      ],
      "stateMutability": "view",
      "type": "function",
      "constant": true
    },
    {
      "inputs": [
        {
          "internalType": "string",
          "name": "_name",
          "type": "string"
        }
      ],
      "name": "registerUser",
      "outputs": [],
      "stateMutability": "nonpayable",
      "type": "function"
    },
    {
      "inputs": [
        {
          "internalType": "address[]",
          "name": "_signers",
          "type": "address[]"
        },
        {
          "internalType": "string",
          "name": "_title",
          "type": "string"
        },
        {
          "internalType": "string",
          "name": "_content",
          "type": "string"
        },
        {
          "internalType": "uint256",
          "name": "_expiresInDays",
          "type": "uint256"
        }
      ],
      "name": "createContract",
      "outputs": [],
      "stateMutability": "nonpayable",
      "type": "function"
    },
    {
      "inputs": [
        {
          "internalType": "uint256",
          "name": "_contractId",
          "type": "uint256"
        }
      ],
      "name": "signContract",
      "outputs": [],
      "stateMutability": "nonpayable",
      "type": "function"
    },
    {
      "inputs": [
        {
          "internalType": "uint256",
          "name": "_contractId",
          "type": "uint256"
        }
      ],
      "name": "getContract",
      "outputs": [
        {
          "internalType": "uint256",
          "name": "id",
          "type": "uint256"
        },
        {
          "internalType": "address",
          "name": "creator",
          "type": "address"
        },
        {
          "internalType": "address[]",
          "name": "signers",
          "type": "address[]"
        },
        {
          "internalType": "string",
          "name": "title",
          "type": "string"
        },
        {
          "internalType": "string",
          "name": "content",
          "type": "string"
        },
        {
          "internalType": "bytes32",
          "name": "contentHash",
          "type": "bytes32"
        },
        {
          "internalType": "bool[]",
          "name": "isSigned",
          "type": "bool[]"
        },
        {
          "internalType": "bool",
          "name": "isCompleted",
          "type": "bool"
        },
        {
          "internalType": "uint256",
          "name": "createdAt",
          "type": "uint256"
        },
        {
          "internalType": "uint256",
          "name": "expiresAt",
          "type": "uint256"
        }
      ],
      "stateMutability": "view",
      "type": "function",
      "constant": true
    },
    {
      "inputs": [
        {
          "internalType": "address",
          "name": "_user",
          "type": "address"
        }
      ],
      "name": "getUserCreatedContracts",
      "outputs": [
        {
          "internalType": "uint256[]",
          "name": "",
          "type": "uint256[]"
        }
      ],
      "stateMutability": "view",
      "type": "function",
      "constant": true
    },
    {
      "inputs": [
        {
          "internalType": "address",
          "name": "_user",
          "type": "address"
        }
      ],
      "name": "getUserPendingContracts",
      "outputs": [
        {
          "internalType": "uint256[]",
          "name": "",
          "type": "uint256[]"
        }
      ],
      "stateMutability": "view",
      "type": "function",
      "constant": true
    },
    {
      "inputs": [
        {
          "internalType": "uint256",
          "name": "_contractId",
          "type": "uint256"
        },
        {
          "internalType": "string",
          "name": "_content",
          "type": "string"
        }
      ],
      "name": "verifyContract",
      "outputs": [
        {
          "internalType": "bool",
          "name": "",
          "type": "bool"
        }
      ],
      "stateMutability": "view",
      "type": "function",
      "constant": true
    }
  ],
  "bytecode": "0x608060405234801561001057600080fd5b5061276c806100206000396000f3fe608060405234801561001057600080fd5b50600436106100b45760003560e01c80637a72f52c116100715780637a72f52c146101aa5780638736381a146101da5780639537e8d1146101f857806399bb628c14610214578063a87430ba14610230578063aef18bf714610261576100b4565b80632f1b1d3f146100b957806340f5f531146100d757806359ecd65714610107578063671c276c146101255780636ebc8c8614610155578063704f1b941461018e575b600080fd5b6100c1610291565b6040516100ce919061156d565b60405180910390f35b6100f160048036038101906100ec91906115fa565b610296565b6040516100fe91906116e5565b60405180910390f35b61010f61032d565b60405161011c919061156d565b60405180910390f35b61013f600480360381019061013a91906115fa565b610332565b60405161014c91906116e5565b60405180910390f35b61016f600480360381019061016a9190611733565b6103c9565b6040516101859a999897969594939291906119af565b60405180910390f35b6101a860048036038101906101a39190611b9c565b6107ea565b005b6101c460048036038101906101bf9190611be5565b61090e565b6040516101d19190611c41565b60405180910390f35b6101e2610973565b6040516101ef919061156d565b60405180910390f35b610212600480360381019061020d9190611733565b610979565b005b61022e60048036038101906102299190611d24565b610dfd565b005b61024a600480360381019061024591906115fa565b611371565b604051610258929190611ddf565b60405180910390f35b61027b60048036038101906102769190611e3b565b61142a565b6040516102889190611c41565b60405180910390f35b600181565b6060600660008373ffffffffffffffffffffffffffffffffffffffff1673ffffffffffffffffffffffffffffffffffffffff16815260200190815260200160002080548060200260200160405190810160405280929190818152602001828054801561032157602002820191906000526020600020905b81548152602001906001019080831161030d575b50505050509050919050565b601481565b6060600760008373ffffffffffffffffffffffffffffffffffffffff1673ffffffffffffffffffffffffffffffffffffffff1681526020019081526020016000208054806020026020016040519081016040528092919081815260200182805480156103bd57602002820191906000526020600020905b8154815260200190600101908083116103a9575b50505050509050919050565b600080606080606060006060600080600080600260008d815260200190815260200160002090506000816000015403610437576040517f08c379a000000000000000000000000000000000000000000000000000000000815260040161042e90611eb4565b60405180910390fd5b6000600460008e81526020019081526020016000209050808054905067ffffffffffffffff81111561046c5761046b611a71565b5b60405190808252806020026020018201604052801561049a5781602001602082028036833780820191505090505b509950808054905067ffffffffffffffff8111156104bb576104ba611a71565b5b6040519080825280602002602001820160405280156104e95781602001602082028036833780820191505090505b50955060005b81805490508110156106595781818154811061050e5761050d611ed4565b5b9060005260206000200160009054906101000a900473ffffffffffffffffffffffffffffffffffffffff168b828151811061054c5761054b611ed4565b5b602002602001019073ffffffffffffffffffffffffffffffffffffffff16908173ffffffffffffffffffffffffffffffffffffffff1681525050600560008f815260200190815260200160002060008383815481106105ae576105ad611ed4565b5b9060005260206000200160009054906101000a900473ffffffffffffffffffffffffffffffffffffffff1673ffffffffffffffffffffffffffffffffffffffff1673ffffffffffffffffffffffffffffffffffffffff16815260200190815260200160002060009054906101000a900460ff1687828151811061063457610633611ed4565b5b602002602001019015159081151581525050808061065190611f32565b9150506104ef565b5081600001548260010160009054906101000a900473ffffffffffffffffffffffffffffffffffffffff168b846002018560030186600401548b8860050160009054906101000a900460ff1689600601548a600701548680546106bb90611fa9565b80601f01602080910402602001604051908101604052809291908181526020018280546106e790611fa9565b80156107345780601f1061070957610100808354040283529160200191610734565b820191906000526020600020905b81548152906001019060200180831161071757829003601f168201915b5050505050965085805461074790611fa9565b80601f016020809104026020016040519081016040528092919081815260200182805461077390611fa9565b80156107c05780601f10610795576101008083540402835291602001916107c0565b820191906000526020600020905b8154815290600101906020018083116107a357829003601f168201915b505050505095509b509b509b509b509b509b509b509b509b509b5050509193959799509193959799565b600081511161082e576040517f08c379a000000000000000000000000000000000000000000000000000000000815260040161082590612026565b60405180910390fd5b6040518060400160405280828152602001600115158152506000803373ffffffffffffffffffffffffffffffffffffffff1673ffffffffffffffffffffffffffffffffffffffff168152602001908152602001600020600082015181600001908161089991906121f2565b5060208201518160010160006101000a81548160ff0219169083151502179055509050503373ffffffffffffffffffffffffffffffffffffffff167f48cac28ad4dc618e15f4c2dd5e97751182f166de97b25618318b2112aa951a2f8260405161090391906122c4565b60405180910390a250565b600080600260008581526020019081526020016000209050600081600001540361093c57600091505061096d565b8260405160200161094d9190612322565b604051602081830303815290604052805190602001208160040154149150505b92915050565b60035481565b600060026000838152602001908152602001600020905060008160000154036109d7576040517f08c379a00000000000000000000000000000000000000000000000000000000081526004016109ce90611eb4565b60405180910390fd5b8060050160009054906101000a900460ff1615610a29576040517f08c379a0000000000000000000000000000000000000000000000000000000008152600401610a2090612385565b60405180910390fd5b60007fffffffffffffffffffffffffffffffffffffffffffffffffffffffffffffffff905060005b6004600085815260200190815260200160002080549050811015610b0c573373ffffffffffffffffffffffffffffffffffffffff16600460008681526020019081526020016000208281548110610aab57610aaa611ed4565b5b9060005260206000200160009054906101000a900473ffffffffffffffffffffffffffffffffffffffff1673ffffffffffffffffffffffffffffffffffffffff1603610af957809150610b0c565b8080610b0490611f32565b915050610a51565b506000811215610b51576040517f08c379a0000000000000000000000000000000000000000000000000000000008152600401610b48906123f1565b60405180910390fd5b6005600084815260200190815260200160002060003373ffffffffffffffffffffffffffffffffffffffff1673ffffffffffffffffffffffffffffffffffffffff16815260200190815260200160002060009054906101000a900460ff1615610bef576040517f08c379a0000000000000000000000000000000000000000000000000000000008152600401610be69061245d565b60405180910390fd5b60016005600085815260200190815260200160002060003373ffffffffffffffffffffffffffffffffffffffff1673ffffffffffffffffffffffffffffffffffffffff16815260200190815260200160002060006101000a81548160ff0219169083151502179055503373ffffffffffffffffffffffffffffffffffffffff16837fb0bc734f1d373c4d4ee71f888f4c4a60a624dc9430bf69d4f9decd3ed9c467be42604051610c9f919061156d565b60405180910390a3610cb1338461144a565b60006001905060005b6004600086815260200190815260200160002080549050811015610da557600560008681526020019081526020016000206000600460008881526020019081526020016000208381548110610d1257610d11611ed4565b5b9060005260206000200160009054906101000a900473ffffffffffffffffffffffffffffffffffffffff1673ffffffffffffffffffffffffffffffffffffffff1673ffffffffffffffffffffffffffffffffffffffff16815260200190815260200160002060009054906101000a900460ff16610d925760009150610da5565b8080610d9d90611f32565b915050610cba565b508015610df75760018360050160006101000a81548160ff021916908315150217905550837f6aafa2babf7b7b7142ff5c7ff71f2b5f78e2243167a26d6b8a7f70936e76923e60405160405180910390a25b50505050565b6001845110158015610e1157506014845111155b610e50576040517f08c379a0000000000000000000000000000000000000000000000000000000008152600401610e47906124c9565b60405180910390fd5b6000835111610e94576040517f08c379a0000000000000000000000000000000000000000000000000000000008152600401610e8b90612535565b60405180910390fd5b6000825111610ed8576040517f08c379a0000000000000000000000000000000000000000000000000000000008152600401610ecf906125a1565b60405180910390fd5b600082604051602001610eeb9190612322565b6040516020818303038152906040528051906020012090506001600082815260200190815260200160002060009054906101000a900460ff1615610f64576040517f08c379a0000000000000000000000000000000000000000000000000000000008152600401610f5b9061260d565b60405180910390fd5b600180600083815260200190815260200160002060006101000a81548160ff02191690831515021790555060036000815480929190610fa290611f32565b9190505550600060035490506040518061010001604052808281526020013373ffffffffffffffffffffffffffffffffffffffff168152602001868152602001858152602001838152602001600015158152602001428152602001620151808561100c919061262d565b42611017919061266f565b815250600260008381526020019081526020016000206000820151816000015560208201518160010160006101000a81548173ffffffffffffffffffffffffffffffffffffffff021916908373ffffffffffffffffffffffffffffffffffffffff160217905550604082015181600201908161109391906121f2565b5060608201518160030190816110a991906121f2565b506080820151816004015560a08201518160050160006101000a81548160ff02191690831515021790555060c0820151816006015560e08201518160070155905050600660003373ffffffffffffffffffffffffffffffffffffffff1673ffffffffffffffffffffffffffffffffffffffff16815260200190815260200160002081908060018154018082558091505060019003906000526020600020016000909190919091505560005b8651811015611301576004600083815260200190815260200160002087828151811061118357611182611ed4565b5b60200260200101519080600181540180825580915050600190039060005260206000200160009091909190916101000a81548173ffffffffffffffffffffffffffffffffffffffff021916908373ffffffffffffffffffffffffffffffffffffffff160217905550600060056000848152602001908152602001600020600089848151811061121557611214611ed4565b5b602002602001015173ffffffffffffffffffffffffffffffffffffffff1673ffffffffffffffffffffffffffffffffffffffff16815260200190815260200160002060006101000a81548160ff0219169083151502179055506007600088838151811061128557611284611ed4565b5b602002602001015173ffffffffffffffffffffffffffffffffffffffff1673ffffffffffffffffffffffffffffffffffffffff16815260200190815260200160002082908060018154018082558091505060019003906000526020600020016000909190919091505580806112f990611f32565b915050611154565b503373ffffffffffffffffffffffffffffffffffffffff16817f4bc2dcc4973d647d521a2f894a8165959debdaa2cd6d64fc3b5079a8c767777e8760026000868152602001908152602001600020600701546040516113619291906126a3565b60405180910390a3505050505050565b600060205280600052604060002060009150905080600001805461139490611fa9565b80601f01602080910402602001604051908101604052809291908181526020018280546113c090611fa9565b801561140d5780601f106113e25761010080835404028352916020019161140d565b820191906000526020600020905b8154815290600101906020018083116113f057829003601f168201915b5050505050908060010160009054906101000a900460ff16905082565b60016020528060005260406000206000915054906101000a900460ff1681565b6000600760008473ffffffffffffffffffffffffffffffffffffffff1673ffffffffffffffffffffffffffffffffffffffff168152602001908152602001600020905060005b818054905081101561154e57828282815481106114b0576114af611ed4565b5b90600052602060002001540361153b5781600183805490506114d291906126d3565b815481106114e3576114e2611ed4565b5b906000526020600020015482828154811061150157611500611ed4565b5b9060005260206000200181905550818054806115205761151f612707565b5b6001900381819060005260206000200160009055905561154e565b808061154690611f32565b915050611490565b50505050565b6000819050919050565b61156781611554565b82525050565b6000602082019050611582600083018461155e565b92915050565b6000604051905090565b600080fd5b600080fd5b600073ffffffffffffffffffffffffffffffffffffffff82169050919050565b60006115c78261159c565b9050919050565b6115d7816115bc565b81146115e257600080fd5b50565b6000813590506115f4816115ce565b92915050565b6000602082840312156116105761160f611592565b5b600061161e848285016115e5565b91505092915050565b600081519050919050565b600082825260208201905092915050565b6000819050602082019050919050565b61165c81611554565b82525050565b600061166e8383611653565b60208301905092915050565b6000602082019050919050565b600061169282611627565b61169c8185611632565b93506116a783611643565b8060005b838110156116d85781516116bf8882611662565b97506116ca8361167a565b9250506001810190506116ab565b5085935050505092915050565b600060208201905081810360008301526116ff8184611687565b905092915050565b61171081611554565b811461171b57600080fd5b50565b60008135905061172d81611707565b92915050565b60006020828403121561174957611748611592565b5b60006117578482850161171e565b91505092915050565b611769816115bc565b82525050565b600081519050919050565b600082825260208201905092915050565b6000819050602082019050919050565b6117a4816115bc565b82525050565b60006117b6838361179b565b60208301905092915050565b6000602082019050919050565b60006117da8261176f565b6117e4818561177a565b93506117ef8361178b565b8060005b8381101561182057815161180788826117aa565b9750611812836117c2565b9250506001810190506117f3565b5085935050505092915050565b600081519050919050565b600082825260208201905092915050565b60005b8381101561186757808201518184015260208101905061184c565b60008484015250505050565b6000601f19601f8301169050919050565b600061188f8261182d565b6118998185611838565b93506118a9818560208601611849565b6118b281611873565b840191505092915050565b6000819050919050565b6118d0816118bd565b82525050565b600081519050919050565b600082825260208201905092915050565b6000819050602082019050919050565b60008115159050919050565b61191781611902565b82525050565b6000611929838361190e565b60208301905092915050565b6000602082019050919050565b600061194d826118d6565b61195781856118e1565b9350611962836118f2565b8060005b8381101561199357815161197a888261191d565b975061198583611935565b925050600181019050611966565b5085935050505092915050565b6119a981611902565b82525050565b6000610140820190506119c5600083018d61155e565b6119d2602083018c611760565b81810360408301526119e4818b6117cf565b905081810360608301526119f8818a611884565b90508181036080830152611a0c8189611884565b9050611a1b60a08301886118c7565b81810360c0830152611a2d8187611942565b9050611a3c60e08301866119a0565b611a4a61010083018561155e565b611a5861012083018461155e565b9b9a5050505050505050505050565b600080fd5b600080fd5b7f4e487b7100000000000000000000000000000000000000000000000000000000600052604160045260246000fd5b611aa982611873565b810181811067ffffffffffffffff82111715611ac857611ac7611a71565b5b80604052505050565b6000611adb611588565b9050611ae78282611aa0565b919050565b600067ffffffffffffffff821115611b0757611b06611a71565b5b611b1082611873565b9050602081019050919050565b82818337600083830152505050565b6000611b3f611b3a84611aec565b611ad1565b905082815260208101848484011115611b5b57611b5a611a6c565b5b611b66848285611b1d565b509392505050565b600082601f830112611b8357611b82611a67565b5b8135611b93848260208601611b2c565b91505092915050565b600060208284031215611bb257611bb1611592565b5b600082013567ffffffffffffffff811115611bd057611bcf611597565b5b611bdc84828501611b6e565b91505092915050565b60008060408385031215611bfc57611bfb611592565b5b6000611c0a8582860161171e565b925050602083013567ffffffffffffffff811115611c2b57611c2a611597565b5b611c3785828601611b6e565b9150509250929050565b6000602082019050611c5660008301846119a0565b92915050565b600067ffffffffffffffff821115611c7757611c76611a71565b5b602082029050602081019050919050565b600080fd5b6000611ca0611c9b84611c5c565b611ad1565b90508083825260208201905060208402830185811115611cc357611cc2611c88565b5b835b81811015611cec5780611cd888826115e5565b845260208401935050602081019050611cc5565b5050509392505050565b600082601f830112611d0b57611d0a611a67565b5b8135611d1b848260208601611c8d565b91505092915050565b60008060008060808587031215611d3e57611d3d611592565b5b600085013567ffffffffffffffff811115611d5c57611d5b611597565b5b611d6887828801611cf6565b945050602085013567ffffffffffffffff811115611d8957611d88611597565b5b611d9587828801611b6e565b935050604085013567ffffffffffffffff811115611db657611db5611597565b5b611dc287828801611b6e565b9250506060611dd38782880161171e565b91505092959194509250565b60006040820190508181036000830152611df98185611884565b9050611e0860208301846119a0565b9392505050565b611e18816118bd565b8114611e2357600080fd5b50565b600081359050611e3581611e0f565b92915050565b600060208284031215611e5157611e50611592565b5b6000611e5f84828501611e26565b91505092915050565b7f636f6e7472616374206e6f7420666f756e640000000000000000000000000000600082015250565b6000611e9e601283611838565b9150611ea982611e68565b602082019050919050565b60006020820190508181036000830152611ecd81611e91565b9050919050565b7f4e487b7100000000000000000000000000000000000000000000000000000000600052603260045260246000fd5b7f4e487b7100000000000000000000000000000000000000000000000000000000600052601160045260246000fd5b6000611f3d82611554565b91507fffffffffffffffffffffffffffffffffffffffffffffffffffffffffffffffff8203611f6f57611f6e611f03565b5b600182019050919050565b7f4e487b7100000000000000000000000000000000000000000000000000000000600052602260045260246000fd5b60006002820490506001821680611fc157607f821691505b602082108103611fd457611fd3611f7a565b5b50919050565b7f4e616d6520726571756972656400000000000000000000000000000000000000600082015250565b6000612010600d83611838565b915061201b82611fda565b602082019050919050565b6000602082019050818103600083015261203f81612003565b9050919050565b60008190508160005260206000209050919050565b60006020601f8301049050919050565b600082821b905092915050565b6000600883026120a87fffffffffffffffffffffffffffffffffffffffffffffffffffffffffffffffff8261206b565b6120b2868361206b565b95508019841693508086168417925050509392505050565b6000819050919050565b60006120ef6120ea6120e584611554565b6120ca565b611554565b9050919050565b6000819050919050565b612109836120d4565b61211d612115826120f6565b848454612078565b825550505050565b600090565b612132612125565b61213d818484612100565b505050565b5b818110156121615761215660008261212a565b600181019050612143565b5050565b601f8211156121a65761217781612046565b6121808461205b565b8101602085101561218f578190505b6121a361219b8561205b565b830182612142565b50505b505050565b600082821c905092915050565b60006121c9600019846008026121ab565b1980831691505092915050565b60006121e283836121b8565b9150826002028217905092915050565b6121fb8261182d565b67ffffffffffffffff81111561221457612213611a71565b5b61221e8254611fa9565b612229828285612165565b600060209050601f83116001811461225c576000841561224a578287015190505b61225485826121d6565b8655506122bc565b601f19841661226a86612046565b60005b828110156122925784890151825560018201915060208501945060208101905061226d565b868310156122af57848901516122ab601f8916826121b8565b8355505b6001600288020188555050505b505050505050565b600060208201905081810360008301526122de8184611884565b905092915050565b600081905092915050565b60006122fc8261182d565b61230681856122e6565b9350612316818560208601611849565b80840191505092915050565b600061232e82846122f1565b915081905092915050565b7f636f6e747261637420616c726561647920636f6d706c65746564000000000000600082015250565b600061236f601a83611838565b915061237a82612339565b602082019050919050565b6000602082019050818103600083015261239e81612362565b9050919050565b7f6e6f742061207369676e65720000000000000000000000000000000000000000600082015250565b60006123db600c83611838565b91506123e6826123a5565b602082019050919050565b6000602082019050818103600083015261240a816123ce565b9050919050565b7f616c7265616479207369676e6564000000000000000000000000000000000000600082015250565b6000612447600e83611838565b915061245282612411565b602082019050919050565b600060208201905081810360008301526124768161243a565b9050919050565b7f696e76616c6964207369676e65727320636f756e740000000000000000000000600082015250565b60006124b3601583611838565b91506124be8261247d565b602082019050919050565b600060208201905081810360008301526124e2816124a6565b9050919050565b7f7469746c65207265717569726564000000000000000000000000000000000000600082015250565b600061251f600e83611838565b915061252a826124e9565b602082019050919050565b6000602082019050818103600083015261254e81612512565b9050919050565b7f636f6e74656e7420726571756972656400000000000000000000000000000000600082015250565b600061258b601083611838565b915061259682612555565b602082019050919050565b600060208201905081810360008301526125ba8161257e565b9050919050565b7f636f6e74656e7420616c72656164792075736564000000000000000000000000600082015250565b60006125f7601483611838565b9150612602826125c1565b602082019050919050565b60006020820190508181036000830152612626816125ea565b9050919050565b600061263882611554565b915061264383611554565b925082820261265181611554565b9150828204841483151761266857612667611f03565b5b5092915050565b600061267a82611554565b915061268583611554565b925082820190508082111561269d5761269c611f03565b5b92915050565b600060408201905081810360008301526126bd8185611884565b90506126cc602083018461155e565b9392505050565b60006126de82611554565b91506126e983611554565b925082820390508181111561270157612700611f03565b5b92915050565b7f4e487b7100000000000000000000000000000000000000000000000000000000600052603160045260246000fdfea2646970667358221220059ad63c558ec93239df8aa9f42909fa2087c981906e94d75c1a4ed6a48435ad64736f6c63430008150033",
  "immutableReferences": {},
  "source": "// SPDX-License-Identifier: MIT\r\npragma solidity ^0.8.21;\r\n\r\ncontract DigitalSignature {\r\n    uint256 public constant MAX_SIGNERS = 20;\r\n    uint256 public constant MIN_SIGNERS = 1;\r\n\r\n    struct User {\r\n        string name;\r\n        bool isRegistered;\r\n    }\r\n\r\n    struct ContractMeta {\r\n        uint256 id;\r\n        address creator;\r\n        string title;\r\n        string content;\r\n        bytes32 contentHash;\r\n        bool isCompleted;\r\n        uint256 createdAt;\r\n        uint256 expiresAt;\r\n    }\r\n\r\n    mapping(address => User) public users;\r\n    mapping(bytes32 => bool) public usedHashes;\r\n\r\n    mapping(uint256 => ContractMeta) private metas;\r\n    uint256 public contractCount;\r\n\r\n    mapping(uint256 => address[]) private signersMap;\r\n    mapping(uint256 => mapping(address => bool)) private signedMap;\r\n\r\n    mapping(address => uint256[]) private createdContracts;\r\n    mapping(address => uint256[]) private pendingContracts;\r\n\r\n    event ContractCreated(uint256 indexed contractId, address indexed creator, string title, uint256 expiresAt);\r\n    event ContractSigned(uint256 indexed contractId, address indexed signer, uint256 signedAt);\r\n    event ContractCompleted(uint256 indexed contractId);\r\n    event UserRegistered(address indexed userAddress, string name);\r\n\r\n    function registerUser(string memory _name) public {\r\n        require(bytes(_name).length > 0, \"Name required\");\r\n        users[msg.sender] = User({name: _name, isRegistered: true});\r\n        emit UserRegistered(msg.sender, _name);\r\n    }\r\n\r\n    function createContract(\r\n        address[] memory _signers,\r\n        string memory _title,\r\n        string memory _content,\r\n        uint256 _expiresInDays\r\n    ) public {\r\n        require(_signers.length >= MIN_SIGNERS && _signers.length <= MAX_SIGNERS, \"invalid signers count\");\r\n        require(bytes(_title).length > 0, \"title required\");\r\n        require(bytes(_content).length > 0, \"content required\");\r\n\r\n        bytes32 h = keccak256(abi.encodePacked(_content));\r\n        require(!usedHashes[h], \"content already used\");\r\n        usedHashes[h] = true;\r\n\r\n        contractCount++;\r\n        uint256 id = contractCount;\r\n\r\n        metas[id] = ContractMeta({\r\n            id: id,\r\n            creator: msg.sender,\r\n            title: _title,\r\n            content: _content,\r\n            contentHash: h,\r\n            isCompleted: false,\r\n            createdAt: block.timestamp,\r\n            expiresAt: block.timestamp + (_expiresInDays * 1 days)\r\n        });\r\n\r\n        createdContracts[msg.sender].push(id);\r\n\r\n        for (uint i = 0; i < _signers.length; i++) {\r\n            signersMap[id].push(_signers[i]);\r\n            signedMap[id][_signers[i]] = false;\r\n            pendingContracts[_signers[i]].push(id);\r\n        }\r\n\r\n        emit ContractCreated(id, msg.sender, _title, metas[id].expiresAt);\r\n    }\r\n\r\n    function signContract(uint256 _contractId) public {\r\n        ContractMeta storage m = metas[_contractId];\r\n        require(m.id != 0, \"contract not found\");\r\n        require(!m.isCompleted, \"contract already completed\");\r\n\r\n        int signerIndex = -1;\r\n        for (uint i = 0; i < signersMap[_contractId].length; i++) {\r\n            if (signersMap[_contractId][i] == msg.sender) {\r\n                signerIndex = int(i);\r\n                break;\r\n            }\r\n        }\r\n        require(signerIndex >= 0, \"not a signer\");\r\n\r\n        if (signedMap[_contractId][msg.sender]) {\r\n            revert(\"already signed\");\r\n        }\r\n\r\n        signedMap[_contractId][msg.sender] = true;\r\n        emit ContractSigned(_contractId, msg.sender, block.timestamp);\r\n\r\n        _removePending(msg.sender, _contractId);\r\n\r\n        bool all = true;\r\n        for (uint j = 0; j < signersMap[_contractId].length; j++) {\r\n            if (!signedMap[_contractId][signersMap[_contractId][j]]) { all = false; break; }\r\n        }\r\n        if (all) {\r\n            m.isCompleted = true;\r\n            emit ContractCompleted(_contractId);\r\n        }\r\n    }\r\n\r\n    function _removePending(address user, uint256 id) internal {\r\n        uint256[] storage arr = pendingContracts[user];\r\n        for (uint i = 0; i < arr.length; i++) {\r\n            if (arr[i] == id) {\r\n                arr[i] = arr[arr.length - 1];\r\n                arr.pop();\r\n                break;\r\n            }\r\n        }\r\n    }\r\n\r\n    function getContract(uint256 _contractId) public view returns (\r\n        uint256 id,\r\n        address creator,\r\n        address[] memory signers,\r\n        string memory title,\r\n        string memory content,\r\n        bytes32 contentHash,\r\n        bool[] memory isSigned,\r\n        bool isCompleted,\r\n        uint256 createdAt,\r\n        uint256 expiresAt\r\n    ) {\r\n        ContractMeta storage m = metas[_contractId];\r\n        require(m.id != 0, \"contract not found\");\r\n\r\n        address[] storage s = signersMap[_contractId];\r\n        signers = new address[](s.length);\r\n        isSigned = new bool[](s.length);\r\n        for (uint i = 0; i < s.length; i++) {\r\n            signers[i] = s[i];\r\n            isSigned[i] = signedMap[_contractId][s[i]];\r\n        }\r\n\r\n        return (\r\n            m.id,\r\n            m.creator,\r\n            signers,\r\n            m.title,\r\n            m.content,\r\n            m.contentHash,\r\n            isSigned,\r\n            m.isCompleted,\r\n            m.createdAt,\r\n            m.expiresAt\r\n        );\r\n    }\r\n\r\n    function getUserCreatedContracts(address _user) public view returns (uint256[] memory) {\r\n        return createdContracts[_user];\r\n    }\r\n\r\n    function getUserPendingContracts(address _user) public view returns (uint256[] memory) {\r\n        return pendingContracts[_user];\r\n    }\r\n\r\n    function verifyContract(uint256 _contractId, string memory _content) public view returns (bool) {\r\n        ContractMeta storage m = metas[_contractId];\r\n        if (m.id == 0) return false;\r\n        return m.contentHash == keccak256(abi.encodePacked(_content));\r\n    }\r\n\r\n}\r\n",
  "sourcePath": "C:\\Users\\\\digital-signature-system\\contracts\\DigitalSignature.sol",
  "compiler": {
    "name": "solc",
    "version": "0.8.21+commit.d9974bed.Emscripten.clang"
  },
  "schemaVersion": "3.4.16",
  "updatedAt": "2025-12-06T08:03:27.626Z",
  "networkType": "ethereum",
  "devdoc": {
    "kind": "dev",
    "methods": {},
    "version": 1
  },
  "userdoc": {
    "kind": "user",
    "methods": {},
    "version": 1
  }
}